:020000020000FC
:100000000F931F9307E610E00093C4001093C50000
:1000100008E10093C10006E00093C2001F910F9118
:10002000259A2D9807EC00937A0000E600937C0057
:10003000409A28EC0091C00007FF03C00091C60061
:1000400001C000E0003011F0202F502F28EC522F7B
:1000500000917A00006400937A0000917A0006FD16
:10006000FCCF00917800109179002F938F939F938C
:100070002AE08EE39CE90197F1F72A95D1F7000079
:100080009F918F912F910F930F930091C00005FFC7
:10009000FCCF0F91012F0093C6000F930091C00079
:1000A00005FFFCCF0F910F91121710F02D9AC2CFC0
:0400B0002D98C0CFF8
:00000001FF
